:0400000007EF00F016
:0A00080073821FED08F0AEEF13F055
:10100000003738392F3435362A3132332D23303DED
:101010002B414443205465737400506F7274303A0E
:101020002000506F7274313A2000506F7274323A5F
:101030002000506F7274333A2000256900000600CA
:10104000FACF09F0FBCF0AF0D9CF0BF0DACF0CF0D2
:10105000F2A82DEF08F02FEF08F038EF08F0F2A219
:1010600034EF08F036EF08F038EF08F00BEC17F02B
:10107000F0A63DEF08F03FEF08F048EF08F0F0A0D1
:1010800044EF08F046EF08F048EF08F009EC17F0DD
:10109000F0A84DEF08F04FEF08F058EF08F0F0A27D
:1010A00054EF08F056EF08F058EF08F007EC17F08F
:1010B000F2A65DEF08F05FEF08F07AEF08F0F2A01B
:1010C00064EF08F066EF08F07AEF08F081A86BEFA4
:1010D00008F06DEF08F07AEF08F07204D8A473EF0F
:1010E00008F075EF08F07AEF08F0000E726E000E4F
:1010F000C6EC16F0F2A67FEF08F081EF08F09CEF47
:1011000008F0F2A086EF08F088EF08F09CEF08F0F6
:1011100081B88DEF08F08FEF08F09CEF08F0725067
:10112000D8A495EF08F097EF08F09CEF08F0010EB7
:10113000726E010EC6EC16F0F2A6A1EF08F0A3EF56
:1011400008F0BEEF08F0F2A0A8EF08F0AAEF08F050
:10115000BEEF08F081AAAFEF08F0B1EF08F0BEEFE4
:1011600008F07104D8A4B7EF08F0B9EF08F0BEEFAB
:1011700008F0000E716E000EB9EC16F0F2A6C3EF87
:1011800008F0C5EF08F0E0EF08F0F2A0CAEF08F0B1
:10119000CCEF08F0E0EF08F081BAD1EF08F0D3EF20
:1011A00008F0E0EF08F07150D8A4D9EF08F0DBEFB9
:1011B00008F0E0EF08F0010E716E010EB9EC16F0C8
:1011C000F2A6E5EF08F0E7EF08F002EF09F0F2A071
:1011D000ECEF08F0EEEF08F002EF09F081ACF3EF6E
:1011E00008F0F5EF08F002EF09F07004D8A4FBEF67
:1011F00008F0FDEF08F002EF09F0000E706E000E2F
:10120000ACEC16F0F2A607EF09F009EF09F024EFB5
:1012100009F0F2A00EEF09F010EF09F024EF09F049
:1012200081BC15EF09F017EF09F024EF09F07050B9
:10123000D8A41DEF09F01FEF09F024EF09F0010E0B
:10124000706E010EACEC16F0F2A629EF09F02BEF50
:1012500009F046EF09F0F2A030EF09F032EF09F0A3
:1012600046EF09F081AE37EF09F039EF09F046EFAC
:1012700009F06F04D8A43FEF09F041EF09F046EF01
:1012800009F0000E6F6E000E9FEC16F0F2A64BEF09
:1012900009F04DEF09F068EF09F0F2A052EF09F004
:1012A00054EF09F068EF09F081BE59EF09F05BEFE8
:1012B00009F068EF09F06F50D8A461EF09F063EF0F
:1012C00009F068EF09F0010E6F6E010E9FEC16F049
:1012D0009DAC6DEF09F06FEF09F078EF09F09EAC6F
:1012E00074EF09F076EF09F078EF09F057EC16F09B
:1012F000F2AA7DEF09F07FEF09F088EF09F0F2A480
:1013000084EF09F086EF09F088EF09F0F4EC16F0AD
:101310009DA08DEF09F08FEF09F098EF09F09EA0E6
:1013200094EF09F096EF09F098EF09F0EDEC16F064
:101330009DA29DEF09F09FEF09F0A8EF09F09EA292
:10134000A4EF09F0A6EF09F0A8EF09F0FBEC16F006
:10135000A0A2ADEF09F0AFEF09F0B8EF09F0A1A23C
:10136000B4EF09F0B6EF09F0B8EF09F0E6EC16F0CB
:101370009DA8BDEF09F0BFEF09F0C8EF09F09EA8E6
:10138000C4EF09F0C6EF09F0C8EF09F001EC17F05F
:101390009DAACDEF09F0CFEF09F0D8EF09F09EAA92
:1013A000D4EF09F0D6EF09F0D8EF09F012EC17F0FE
:1013B0009DA6DDEF09F0DFEF09F0E8EF09F09EA64A
:1013C000E4EF09F0E6EF09F0E8EF09F003EC17F0BD
:1013D000A0A6EDEF09F0EFEF09F0F8EF09F0A1A6F4
:1013E000F4EF09F0F6EF09F0F8EF09F005EC17F06B
:1013F0009DA4FDEF09F0FFEF09F008EF0AF09EA4AD
:1014000004EF0AF006EF0AF008EF0AF00FEC17F00D
:10141000A0A00DEF0AF00FEF0AF018EF0AF0A1A05C
:1014200014EF0AF016EF0AF018EF0AF00DEC17F0BF
:101430000CC0DAFF0BC0D9FF0AC0FBFF09C0FAFFDE
:1014400073921100DDEC16F0F20E106E000E116EAC
:1014500052EC11F0F90E1F6E000E206E29EC0FF009
:10146000F90E266E000E276E010E286E070E296EED
:10147000110E2A6E100E2B6E16EC13F0150E0101D4
:10148000436F4B0E426FBE0EE82EFED7422FFCD7A5
:10149000432FFAD700F0F90E1B6E000E1C6E010EE2
:1014A0001D6E6BEC14F0F90E266E000E276E010E09
:1014B000286E010E296E1A0E2A6E100E2B6E16EC77
:1014C00013F0F90E266E000E276E020E286E010E26
:1014D000296E220E2A6E100E2B6E16EC13F0F90EEA
:1014E000266E000E276E030E286E010E296E2A0E40
:1014F0002A6E100E2B6E16EC13F0F90E266E000EEF
:10150000276E040E286E010E296E320E2A6E100E02
:101510002B6E16EC13F06650D8A491EF0AF093EFFF
:101520000AF09DEF0AF0F20E156E000E166E000E18
:10153000176EE5EC15F0D5EF0AF06604D8A4A3EF1A
:101540000AF0A5EF0AF0AFEF0AF0F20E156E000EEA
:10155000166E010E176EE5EC15F0D5EF0AF0020ECF
:101560006618D8A4B6EF0AF0B8EF0AF0C2EF0AF096
:10157000F20E156E000E166E020E176EE5EC15F0EB
:10158000D5EF0AF0030E6618D8A4C9EF0AF0CBEF26
:101590000AF0D5EF0AF0F20E156E000E166E030E6D
:1015A000176EE5EC15F0D5EF0AF08AC061F08BC03C
:1015B00062F0D80E636E000E646EB2EC11F00001A2
:1015C000FF6F88C061F089C062F0D20E636E000EBA
:1015D000646EB2EC11F00001FF6F86C061F087C04D
:1015E00062F0CC0E636E000E646EB2EC11F000017E
:1015F000FF6F84C061F085C062F0C60E636E000E9E
:10160000646EB2EC11F00001FF6FF90E266E000E51
:10161000276E010E286E070E296ED80E2A6E000E58
:101620002B6E16EC13F0F90E266E000E276E020ECE
:10163000286E070E296ED20E2A6E000E2B6E16EC47
:1016400013F0F90E266E000E276E030E286E070E9D
:10165000296ECC0E2A6E000E2B6E16EC13F0F90ECE
:10166000266E000E276E040E286E070E296EC60E1B
:101670002A6E000E2B6E16EC13F08BEF0AF007EFBC
:1016800000F02BBE46EF0BF049EF0BF0010E4AEFD6
:101690000BF0000E326E3250D8B451EF0BF053EF16
:1016A0000BF057EF0BF02A6C2B1ED8B02B2A000141
:1016B00083BF5FEF0BF05DEF0BF065EF0BF0000EFB
:1016C0002F6E010E2E6E69EF0BF082C02EF083C0DC
:1016D0002FF080C030F081C031F03250D8B473EFB9
:1016E0000BF075EF0BF08CEF0BF03006D8A0310645
:1016F0003250D8A47EEF0BF080EF0BF086EF0BF0AA
:10170000000E2D6E2B0E2C6E8AEF0BF0000E2D6E40
:101710002D0E2C6E2CC032F0000E346E1F0E336E68
:10172000000E0101256FC5EF0BF03306D8A034067B
:10173000060E3324D96E010E3420DA6E2AC00DF065
:101740002BC00EF0000E106E0A0E0F6E6AEC12F037
:101750000DC013F00EC014F0C5EC15F01350300F8F
:10176000DF6E2E06D8A02F063006D8A031062AC07C
:101770000DF02BC00EF0000E106E0A0E0F6E8EECE8
:1017800010F00DC02AF00EC02BF034BED0EF0BF0DD
:10179000345008E13304D8A0D0EF0BF0D2EF0BF0B7
:1017A000E8EF0BF02A502B10D8A4D9EF0BF0DBEFA9
:1017B0000BF095EF0BF02FBEE8EF0BF02F5006E18A
:1017C0002E04D8B0E6EF0BF0E8EF0BF095EF0BF03E
:1017D0003250D8B4EEEF0BF0F0EF0BF0FBEF0BF064
:1017E0003306D8A03406060E3324D96E010E3420F9
:1017F000DA6E32C0DFFF28C01DF029C01EF0060ED1
:1018000033241F6E010E3420206E30C021F031C011
:1018100022F0F5EC13F012000DC017F00EC018F016
:1018200011501210D8A417EF0CF019EF0CF01BEFA9
:101830000CF0C6EF0CF017C0D9FF18C0DAFF0FC0CC
:10184000DFFF11501724136E12501820146EFF0E74
:101850001324D96EFF0E1420DA6E0FC0DFFF125072
:1018600007E1030E115CD8B038EF0CF03AEF0CF042
:101870003CEF0CF0C6EF0CF020EE01F01750D9262B
:101880001850DA220FC0DFFF20EE02F01750D926E1
:101890001850DA220FC0DFFF11501724136E1250B8
:1018A0001820146EFE0E1324D96EFF0E1420DA6E6B
:1018B0000FC0DFFF11501724136E12501820146E42
:1018C000FD0E1324D96EFF0E1420DA6E0FC0DFFF59
:1018D000125007E1070E115CD8B071EF0CF073EFF6
:1018E0000CF075EF0CF0C6EF0CF020EE03F0175083
:1018F000D9261850DA220FC0DFFF11501724136EBB
:1019000012501820146EFC0E1324D96EFF0E1420F2
:10191000DA6E0FC0DFFF125007E1090E115CD8B07C
:1019200094EF0CF096EF0CF098EF0CF0C6EF0CF083
:1019300017C013F018C014F0131E141E134A142AF3
:10194000030E1314156E166A15501726165018221A
:101950001550115E1650125AFC0E1116FF0E12167B
:10196000BDEF0CF017C0D9FF18C0DAFF0FC0DFFFC2
:101970001106D8A01206174A182A11501210D8A41E
:10198000C4EF0CF0C6EF0CF0B2EF0CF01200010E39
:10199000156E0D500E10D8B4D0EF0CF0D2EF0CF045
:1019A000E3EF0CF00DC0D9FF0EC0DAFFDF30E832F4
:1019B000E832070B0F6E070E0F64E1EF0CF0E3EF58
:1019C0000CF046EF0DF0000E156E67EF0DF00DC038
:1019D000D9FF0EC0DAFFDF30E832E832070B0F6EB6
:1019E000010E106E0F2AF7EF0CF0D89010360F2E64
:1019F000F5EF0CF01050FF0A116E0DC0D9FF0EC0AC
:101A0000DAFFDF50070B126E1250020DE80EF324BE
:101A1000D96E000EF420DA6EDECF13F0DDCF14F0B5
:101A200013C0D9FF14C0DAFF1150DF1667EF0DF0B5
:101A30000DC0D9FF0EC0DAFFDF30E832E832070B05
:101A40000F6E010E106E0F2A28EF0DF0D890103691
:101A50000F2E26EF0DF00DC0D9FF0EC0DAFFDF50BC
:101A6000070B116E1150020DE80EF324D96E000E13
:101A7000F420DA6EDECF12F0DDCF13F012C0D9FF02
:101A800013C0DAFF1050DF1267EF0DF00DC0D9FF61
:101A90000EC0DAFFDFBC4FEF0DF052EF0DF0010E7C
:101AA00053EF0DF0000E0F6E106A1050000AD8B4FC
:101AB0005CEF0DF0E3EF0CF00F50000AD8B4E7EF45
:101AC0000CF0010AD8B418EF0DF0E3EF0CF015504C
:101AD000120037C0D9FF38C0DAFFDECFF6FFDDCF06
:101AE000F7FFF86A0800F550250AD8A47AEF0DF040
:101AF0007CEF0DF0E9EF0DF037C0D9FF38C0DAFF09
:101B0000DE2A000EDD22000E0001816F000E806FC4
:101B100080C065F08269836937C0D9FF38C0DAFFB9
:101B2000DECF41F0DDCF42F041C0F6FF42C0F7FF0B
:101B3000F86A0800F550640AD8B4A1EF0DF0A3EFDD
:101B40000DF0B2EF0DF041C0F6FF42C0F7FFF86AAA
:101B50000800F550690AD8A4B0EF0DF0B2EF0DF00F
:101B6000E0EF0DF039C0D9FF3AC0DAFFDFCF3BF02C
:101B7000020EDE26DFCF3CF0000EDD223BC0D9FF97
:101B80003CC0DAFFDECF3DF0DDCF3EF0010E412458
:101B90003B6E000E42203C6E37C0D9FF38C0DAFFE2
:101BA0003BC0DEFF3CC0DDFF35C028F036C029F069
:101BB0003DC02AF03EC02BF041EC0BF0FEEF0DF0E3
:101BC00037C0D9FF38C0DAFFDE2A000EDD22FEEF73
:101BD0000DF037C0D9FF38C0DAFFDECFF6FFDDCF1A
:101BE000F7FFF86A0800F5500D6E0E6A35C00FF069
:101BF00036C010F029EC10F0E0EF0DF01200010EED
:101C0000166E0D500E10D8B408EF0EF00AEF0EF05D
:101C10001BEF0EF00DC0D9FF0EC0DAFFDF30E83247
:101C2000E832070B106E070E106419EF0EF01BEF71
:101C30000EF07EEF0EF0000E166E93EF0EF00DC05C
:101C4000D9FF0EC0DAFFDF30E832E832070B106E42
:101C5000010E116E102A2FEF0EF0D8901136102EB3
:101C60002DEF0EF01150FF0A126E0DC0D9FF0EC0FD
:101C7000DAFFDF50070B136E1350020DDE0EF32454
:101C8000D96E000EF420DA6EDECF14F0DDCF15F041
:101C900014C0D9FF15C0DAFF1250DF1693EF0EF013
:101CA0000DC0D9FF0EC0DAFFDF30E832E832070B93
:101CB000106E010E116E102A60EF0EF0D8901136E2
:101CC000102E5EEF0EF00DC0D9FF0EC0DAFFDF5010
:101CD000070B126E1250020DDE0EF324D96E000EA9
:101CE000F420DA6EDECF13F0DDCF14F013C0D9FF8D
:101CF00014C0DAFF1150DF1293EF0EF00F50106E88
:101D0000116A1150000AD8B488EF0EF01BEF0EF0E4
:101D10001050000AD8B41FEF0EF0010AD8B450EFEB
:101D20000EF01BEF0EF016501200000E276E23501F
:101D30002410D8A49EEF0EF0A0EF0EF0A4EF0EF04A
:101D4000000E286E27EF0FF023C017F024C018F004
:101D5000A4EC14F0286E010E2324176E000E24202C
:101D6000186EA4EC14F0286E000E276E2750232462
:101D7000256E000E2420266E020E2524176E000EFE
:101D80002620186EA4EC14F0272A070E2764CBEF48
:101D90000EF0CDEF0EF0B6EF0EF0340E256EF20E13
:101DA000E82EFED7252EFCD723C01AF024C01BF046
:101DB000380E1C6E66EC13F00D0E256EFC0EE82E30
:101DC000FED7252EFCD723C01AF024C01BF0380EF6
:101DD0001C6E66EC13F0640EE82EFED723C01AF0DA
:101DE00024C01BF0380E1C6E66EC13F023C01AF0F2
:101DF00024C01BF0010E1C6E66EC13F023C01AF019
:101E000024C01BF0020E1C6E66EC13F023C01AF007
:101E100024C01BF0060E1C6E66EC13F023C01AF0F3
:101E200024C01BF00C0E1C6E66EC13F023C01AF0DD
:101E300024C01BF0380E1C6E66EC13F023C01AF0A1
:101E400024C01BF0800E1C6E66EC13F0286E285028
:101E50001200000E236E1F502010D8A432EF0FF096
:101E600034EF0FF038EF0FF0000E246EBBEF0FF0E1
:101E70001FC017F020C018F0A4EC14F0246E010E5F
:101E80001F24176E000E2020186EA4EC14F0246E90
:101E9000000E236E23501F24216E000E2020226E80
:101EA000020E2124176E000E2220186EA4EC14F0EE
:101EB000232A030E23645FEF0FF061EF0FF04AEF68
:101EC0000FF0340E216EF20EE82EFED7212EFCD735
:101ED0001FC01BF020C01CF0380E1D6E6BEC14F000
:101EE0000D0E216EFC0EE82EFED7212EFCD71FC052
:101EF0001BF020C01CF0380E1D6E6BEC14F0640E4D
:101F0000E82EFED71FC01BF020C01CF0380E1D6E3F
:101F10006BEC14F01FC01BF020C01CF0010E1D6EF6
:101F20006BEC14F01FC01BF020C01CF0020E1D6EE5
:101F30006BEC14F01FC01BF020C01CF0060E1D6ED1
:101F40006BEC14F01FC01BF020C01CF00C0E1D6EBB
:101F50006BEC14F01FC01BF020C01CF0280E1D6E8F
:101F60006BEC14F01FC01BF020C01CF0800E1D6E27
:101F70006BEC14F0246E245012000F6EE7EF0FF09C
:101F8000928028EF10F0928228EF10F0928428EFD0
:101F900010F0928628EF10F0928A28EF10F09680C9
:101FA00028EF10F0968228EF10F0968428EF10F0BA
:101FB000938428EF10F0938628EF10F0938228EF97
:101FC00010F0938828EF10F0938028EF10F00F5056
:101FD0000D6E0E6A0E50000AD8B4F1EF0FF028EF24
:101FE00010F00D50000AD8B4C0EF0FF0010AD8B4B9
:101FF000C3EF0FF0030AD8B4C6EF0FF0010AD8B44C
:10200000C9EF0FF0070AD8B4CCEF0FF0010AD8B42B
:10201000CFEF0FF0030AD8B4D2EF0FF0010AD8B413
:10202000D5EF0FF00F0AD8B4D8EF0FF0010AD8B4EB
:10203000DBEF0FF0030AD8B4DEEF0FF0010AD8B4DB
:10204000E1EF0FF0070AD8B4E4EF0FF028EF10F03B
:1020500012000F501010D8B430EF10F032EF10F023
:102060003BEF10F00F501010D8A439EF10F03BEFF9
:1020700010F040EF10F00D5011EC17F08DEF10F054
:1020800020EE0AF00F50D9261050DA22DE50DE1072
:10209000D8B44DEF10F04FEF10F06AEF10F020EED3
:1020A0000AF00F50D9261050DA2210EE03F00F502C
:1020B000E1261050E222DE50E65CE650800A156E02
:1020C000DE50800A1558D8B068EF10F06AEF10F0B3
:1020D0008DEF10F020EE03F00F50D9261050DA22C9
:1020E000DECF11F0DDCF12F00FC0D9FF10C0DAFF44
:1020F000DECF13F0DDCF14F011501324D96E12503F
:102100001420DA6E0DC0DFFF20EE03F00F50D92649
:102110001050DA22DE2A000EDD221200000E126EAE
:1021200010BE97EF10F095EF10F09DEF10F00F6CD0
:10213000101ED8B0102A010E126E0EBEA4EF10F0C1
:10214000A2EF10F0AAEF10F00D6C0E1ED8B00E2A00
:10215000010E121A000E146E000E136E0F501010A6
:10216000D8B4B5EF10F0B7EF10F0DFEF10F0010EBC
:10217000116EBFEF10F0D8900F361036112A10AE46
:10218000C4EF10F0C6EF10F0BBEF10F0D89013368C
:1021900014360F500D5C10500E58D8A0D2EF10F02E
:1021A000D4EF10F0D9EF10F00F500D5E10500E5A12
:1021B0001380D89010320F32112EC6EF10F012504B
:1021C000D8B4E5EF10F0E7EF10F0EBEF10F0136C80
:1021D000141ED8B0142A13C00DF014C00EF0120053
:1021E00001500210D8B4F7EF10F0F9EF10F002EF41
:1021F00011F003500410D8A400EF11F002EF11F019
:1022000006EF11F0000E086E50EF11F020EE06F010
:102210000150D9260250DA22DFA211EF11F013EF9C
:1022200011F027EF11F0C350C4CF05F0066A05C0C6
:1022300006F0056A0526000E062203C0D9FF04C079
:10224000DAFF05C0DEFF06C0DDFF4EEF11F020EE25
:1022500006F00150D9260250DA22DFB232EF11F037
:1022600034EF11F013EF11F0C350C4CF05F0066A3C
:1022700005C006F0056A0526000E0622060E076E4A
:10228000063406320532072E40EF11F003C0D9FFA5
:1022900004C0DAFF05C0DEFF06C0DDFF010E086ED8
:1022A0000850120010501110D8A459EF11F05BEF34
:1022B00011F05FEF11F0000E136EB0EF11F0C2904D
:1022C00020EE03F01050D9261150DA22DF50126EA2
:1022D000124612461246C0501218C70B1218C06E92
:1022E00020EE04F01050D9261150DA22DF50126E81
:1022F000C0501218F80B1218C06E20EE05F01050E6
:10230000D9261150DA22DF50126E12461246C25000
:102310001218C30B1218C26E20EE05F01050D92609
:102320001150DA22DF50BDEC0FF09D8C9E9CF28E96
:10233000F28C10C0D9FF11C0DAFFDECFC4F0DDCFC0
:10234000C5F010C00DF011C00EF0A3EC15F010C0D8
:102350000DF011C00EF05CEC15F0C280010E136E92
:1023600013501200010E0101406F21EE3AF0050EEC
:10237000DE6AE806FDE2000E416F63506410D8A4E7
:10238000C4EF11F0C6EF11F0CAEF11F0000E406F6C
:102390000DEF12F063C00DF064C00EF0000E106E71
:1023A000200E0F6E000E126E050E116E0CEC0CF06E
:1023B00020EE05F06350D9266450DA22DF6A3A0E27
:1023C0004B6E010E4C6E3A0E4D6E100E4E6E61C08D
:1023D0004FF062C050F036EC15F0FEEF11F03A0EFF
:1023E0004125D96EDA6A010EDA2241516324E16E89
:1023F000000E6420E26EDFCFE7FF412B3A0E0101B1
:102400004125D96EDA6A010EDA22DF50D8A40BEF2B
:1024100012F00DEF12F0EFEF11F040511200665084
:10242000D8A415EF12F017EF12F025EF12F0F20E0C
:10243000016E000E026E8AC003F08BC004F0F0EC57
:1024400010F0010E666E69EF12F06604D8A42BEF4F
:1024500012F02DEF12F03BEF12F0F20E016E000EB3
:10246000026E88C003F089C004F0F0EC10F0020E98
:10247000666E69EF12F0020E6618D8A442EF12F0F1
:1024800044EF12F052EF12F0F20E016E000E026EE7
:1024900086C003F087C004F0F0EC10F0030E666E07
:1024A00069EF12F0030E6618D8A459EF12F05BEF33
:1024B00012F069EF12F0F20E016E000E026E84C08F
:1024C00003F085C004F0F0EC10F0000E666E69EFCA
:1024D00012F01200000E126E0EBE73EF12F071EFCA
:1024E00012F079EF12F00D6C0E1ED8B00E2A010E0C
:1024F000126E10BE80EF12F07EEF12F084EF12F039
:102500000F6C101ED8B0102A0F501010D8B48BEFDB
:1025100012F08DEF12F0B1EF12F0010E116E95EF87
:1025200012F0D8900F361036112A10AE9AEF12F032
:102530009CEF12F091EF12F00F500D5C10500E58FE
:10254000D8A0A5EF12F0A7EF12F0ABEF12F00F50EA
:102550000D5E10500E5AD89010320F32112E9CEF93
:1025600012F01250D8B4B7EF12F0B9EF12F0BDEF7D
:1025700012F00D6C0E1ED8B00E2A0DC00DF00EC05C
:102580000EF01200010E256E2206F7EF12F01FC0AA
:102590001BF020C01CF02250800F1D6E6BEC14F05D
:1025A000256E14EF13F01FC01BF020C01CF022504A
:1025B000C00F1D6E6BEC14F0256E14EF13F01FC0EE
:1025C0001BF020C01CF02250940F1D6E6BEC14F019
:1025D000256E14EF13F01FC01BF020C01CF022501A
:1025E000D40F1D6E6BEC14F0256E14EF13F0215018
:1025F000236E246A2450000AD8B401EF13F014EFBC
:1026000013F02350010AD8B4C7EF12F0030AD8B46C
:10261000D3EF12F0010AD8B4DFEF12F0070AD8B4F2
:10262000EBEF12F014EF13F0255012002650271094
:10263000D8A41DEF13F01FEF13F023EF13F0000EDB
:102640002C6E64EF13F026C01FF027C020F028C0C6
:1026500021F029C022F0C2EC12F02C6E4BEF13F0E7
:1026600026C01BF027C01CF02AC0F6FF2BC0F7FFC6
:10267000000EF86E0F0EF76403D00800F55005D079
:10268000F6CFE9FFF7CFEAFFEF501D6E32EC14F002
:102690002C6E2A4A2B2A2AC0F6FF2BC0F7FF000E09
:1026A000F86E0F0EF76403D00800F55005D0F6CF92
:1026B000E9FFF7CFEAFFEF500009D8A462EF13F06B
:1026C00064EF13F030EF13F02C501200000E226E66
:1026D0001A501B10D8A46FEF13F071EF13F075EFC1
:1026E00013F0000E216EACEF13F01AC00DF01BC0FA
:1026F0000EF0000E0F6EFFEC0DF0000E226E225059
:102700001A241D6E000E1B201E6E020E1D240D6E5F
:10271000000E1E200E6E22C01FF01CC020F01F2ACB
:1027200094EF13F0D89020321F2E92EF13F0205028
:10273000010B0F6EFFEC0DF0222A070E2264A3EFAF
:1027400013F0A5EF13F07FEF13F01AC017F01BC0C2
:1027500018F021EC16F0216E21501200A60EF66E34
:102760002D0EF76E000EF86E01EE26F010EE14F04E
:102770000900F5CFEEFFE550E150FAE1020EF66EEA
:102780002D0EF76E000EF86E00EEDEF010EE21F06A
:102790000900F5CFEEFFE550E150FAE1FE0EF66ECE
:1027A0002D0EF76E000EF86E00EE6FF010EE04F0D6
:1027B0000900F5CFEEFFE550E150FAE101EE00F03F
:1027C000260EEE6AE806FDE100EE80F05E0EEE6A8F
:1027D000E806FDE100EE65F00A0EEE6AE806FDE1AE
:1027E00073907392000122EF0AF022BEFAEF13F009
:1027F000FCEF13F002EF14F021C026F022C027F006
:1028000006EF14F0000E276E000E266E000E256EE9
:10281000000E246E18EF14F0000E0E6E200E0D6EDA
:102820001DC00FF01EC010F029EC10F0244A252A1C
:102830002650245C2550800A236E2750800A235896
:10284000D8A025EF14F027EF14F00CEF14F01FC000
:1028500016F020C017F01DC018F01EC019F081EC52
:1028600015F012001B501C10D8A439EF14F03BEFE8
:1028700014F03FEF14F0000E1E6E69EF14F01BC051
:102880000DF01CC00EF0010E0F6EFFEC0DF01E6E71
:102890001BC017F01CC018F01D380F0B196EDAECB6
:1028A00014F01E6E1BC017F01CC018F03CEC16F0A4
:1028B0001E6E1BC017F01CC018F01DC019F0DAEC1A
:1028C00014F01E6E1BC017F01CC018F03CEC16F084
:1028D0001E6E1E5012001B501C10D8A472EF14F074
:1028E00074EF14F078EF14F0000E1E6EA2EF14F0E7
:1028F0001BC00DF01CC00EF0000E0F6EFFEC0DF0B3
:102900001E6E1BC017F01CC018F01D380F0B196E7F
:10291000DAEC14F01E6E1BC017F01CC018F03CEC73
:1029200016F01E6E1BC017F01CC018F01DC019F069
:10293000DAEC14F01E6E1BC017F01CC018F03CEC53
:1029400016F01E6E1E50120017501810D8B4ABEFC0
:1029500014F0ADEF14F0BEEF14F017C0D9FF18C09B
:10296000DAFFDF30E832E832070B196E070E196420
:10297000BCEF14F0BEEF14F0C2EF14F0000E1A6EAC
:10298000D8EF14F017C00DF018C00EF0C7EC0CF023
:102990001A6E17C00DF018C00EF017C0D9FF18C07E
:1029A000DAFF000EDFBE010E0F6EFFEC0DF01A6EA7
:1029B0001A501200020E17240D6E000E18200E6E13
:1029C0001950010B0F6EFFEC0DF0030E17240D6E66
:1029D000000E18200E6ED8901930010B0F6EFFEC10
:1029E0000DF0040E17240D6E000E18200E6E194007
:1029F000E8423F0B010B0F6EFFEC0DF0050E1724A4
:102A00000D6E000E18200E6E1938E8461F0B010BD4
:102A10000F6EFFEC0DF01A6E1A50120045C049F00F
:102A200046C04AF022EF15F043C035F044C036F0FE
:102A3000490E376E000E386E47C039F048C03AF084
:102A400069EC0DF049C0F6FF4AC0F7FFF86A0800CC
:102A5000F5500009D8A42FEF15F031EF15F014EF61
:102A600015F0000E446E000E436E12004F0E536EB2
:102A7000000E546E4BC055F04CC056F0000E596E0F
:102A8000000E586E000E606E000E5F6E550E436EA7
:102A9000000E446E4DC045F04EC046F0530E476EDA
:102AA000000E486E0EEC15F058504B24D96E59505C
:102AB0004C20DA6EDF6A120020EE06F00D50D926A7
:102AC0000E50DA22DFA067EF15F069EF15F06DEF19
:102AD00015F0C18AC18880EF15F020EE06F00D5088
:102AE000D9260E50DA22DFB278EF15F07AEF15F022
:102AF0007EEF15F0C19AC19880EF15F0C19AC19888
:102B00001200000E1C6E000E1B6E92EF15F01AC024
:102B10000DF00E6A18C00FF019C010F029EC10F07B
:102B20001B4A1C2A1B501624D96E1C501720DA6E23
:102B3000DF501A6E1A50D8A4A0EF15F0A2EF15F0CE
:102B400087EF15F0120020EE06F00D50D9260E503A
:102B5000DA22DFA2AEEF15F0B0EF15F0B3EF15F00B
:102B6000C08EC4EF15F020EE06F00D50D9260E50A1
:102B7000DA22DFB2BEEF15F0C0EF15F0C3EF15F0AB
:102B8000C09EC4EF15F0C08E120014BED2EF15F037
:102B9000145006E11304D8B0D0EF15F0D2EF15F0C1
:102BA000E0EF15F013C015F014C016F0151E161E38
:102BB000154A162A15C013F016C014F0E4EF15F0EC
:102BC00013C013F014C014F0120015501610D8A43E
:102BD000ECEF15F0EEEF15F0F2EF15F0000E186EB9
:102BE00002EF16F015C010F016C011F017C012F069
:102BF00004EC16F0186E15C00DF016C00EF06FEC58
:102C000016F0186E1850120010501110D8A40BEFC7
:102C100016F00DEF16F011EF16F0000E146E1FEF08
:102C200016F012C013F013461346C2501318C30B0C
:102C30001318C26E1250BDEC0FF0010E146E14503A
:102C40001200010E17240D6E000E18200E6E010EDC
:102C50000F6EFFEC0DF0030EE82EFED700F0010E14
:102C600017240D6E000E18200E6E000E0F6EFFEC76
:102C70000DF0196E19501200010E17240D6E000E82
:102C800018200E6E010E0F6EFFEC0DF0030EE82EF5
:102C9000FED700F0010E17240D6E000E18200E6EE8
:102CA000000E0F6EFFEC0DF0196E195012009E9C75
:102CB0000001C451C511D8B460EF16F062EF16F0F0
:102CC0006EEF16F002D86EEF16F00500FA6EC451E2
:102CD000FD6EC551FE6EFF6AFA50120012000D50D3
:102CE0000E10D8A476EF16F078EF16F07CEF16F001
:102CF000000E0F6E7FEF16F0C282010E0F6E0F50A6
:102D00001200890F8A0F8B0F8C0F8D0F920F930F6C
:102D1000940F950F960F1E240005050002020A125B
:032D20001A222A4A
:102D2400F90E1F6E000E206E29EC0FF0300E236E8C
:102D3400010E246E95EC0EF01200016EF29001501B
:102D4400D8A4A7EF16F0A9EF16F0ABEF16F0ABEF8F
:102D540016F01200016EF2900150D8A4B4EF16F0F0
:102D6400B6EF16F0B8EF16F0B8EF16F01200016ED9
:102D7400F2900150D8A4C1EF16F0C3EF16F0C5EFDE
:102D840016F0C5EF16F01200016EF2900150D8A4AF
:102D9400CEEF16F0D0EF16F0D2EF16F0D2EF16F019
:102DA4001200800F810F820F830F840F323A030BBE
:102DB400131B232B333B92EC16F0F20E106E000E15
:102DC400116E52EC11F01200A19200019751B36EF2
:102DD40096C0B2FF12009E9000019D51CF6E9CC020
:102DE400CEFF1200F2940001A151D76EA0C0D6FF0D
:102DF40012009E9267C0CCFF1200010101019D9850
:102E040012009E961200A1961200F0921200F09009
:102E14001200F2921200A19012009E94120012006D
:022E240012009A
:020000040020DA
:08000000FFFFFFFFFFFFFFFF00
:020000040030CA
:0E000000FF020912FF8181FF0FC00FE00F40C9
:00000001FF
